:020000040800F2
:10000000C020002005C60008A5BF0008A7BF000843
:10001000A9BF0008ABBF0008ADBF0008000000008A
:10002000000000000000000000000000AFBF00085A
:10003000B1BF000800000000B3BF0008B5BF000852
:1000400059C800085DC8000861C8000865C80008F4
:1000500069C800086DC80008C5BF000871C800085D
:1000600075C8000879C800087DC8000881C8000864
:1000700085C8000889C800088DC8000891C8000814
:1000800095C8000899C800089DC80008A1C80008C4
:10009000A5C80008A9C80008ADC80008B1C8000874
:1000A000B5C80008B9C80008BDC80008C1C8000824
:1000B000C5C80008C9C80008CDC80008D1C80008D4
:1000C000D5C80008D9C80008DDC80008E1C8000884
:1000D000E5C80008D3BF0008DDBF0008E7BF00087F
:1000E000E9C80008EDC80008F1C80008F5C8000814
:1000F000F9C80008FDC8000801C9000805C90008C2
:1001000009C900080DC9000811C9000815C900086F
:10011000F5BF000819C900081DC9000821C9000859
:1001200025C9000829C900082DC9000831C90008DF
:1001300080B5FA21DFF87C0B05F05EFE0020DFF8C9
:10014000C01C087001BD80B5C821DFF86C0B05F03C
:1001500053FE0020DFF8641B08700020DFF8A41CA9
:10016000087001BD10B4002000210022DFF8503BD0
:100170001B681B685B0913F001031900DFF8403BA3
:100180001B68DB6813F020031A0000291BD0002A2B
:1001900019D0DFF8303B1B681800DFF8183BDFF898
:1001A000604C24781855DFF8583C1B785B1CDFF84E
:1001B000504C2370DFF8483C1B78FA2B03DB0023FC
:1001C000DFF83C4C237010BC7047DFF8EC1ADFF806
:1001D000EC2A12788854DFF8E41A0978491CDFF811
:1001E000DC2A1170DFF8D41A0978C82903DB002152
:1001F000DFF8C82A1170704770B504000D000026A2
:10020000EDB2C92D0DDA0020060030002900C0B281
:10021000C9B2884205D2F6B2A05DFFF7D6FF761CC0
:10022000F3E770BD38B500240025DFF8900D0078A5
:10023000002803D002283BD00DD346E0DFF8C40BE2
:100240000078DFF8781A0978884203D00120DFF8B7
:100250006C1D087039E0DFF8680A00680068C009A2
:1002600010F001000500002D21D0DFF84C0ADFF866
:10027000941B0978405CDFF84C1A0860DFF8840BA7
:100280000078401CDFF87C1B0870DFF8780B0078E2
:10029000C82803DB0020DFF86C1B08700220DFF8A1
:1002A0001C1D087005F022FEDFF85C1B08600CE0E6
:1002B00005F01CFE0400DFF8500B0068201A062829
:1002C00003D30020DFF8F41C087031BD80B5DFF8DF
:1002D000F0090068C06850F02000DFF8E4190968F0
:1002E000C86000220321272005F074FE272005F0B6
:1002F00084FEFFF71DFFFFF726FF01224FF4007178
:10030000DFF8080B06F023F800224FF48071DFF8C5
:10031000000B06F01CF801BD10B50024DFF8A00C9E
:100320000078002803D0022834D018D342E00122FC
:100330004FF40071DFF8D40A06F009F800224FF4F8
:100340008071DFF8CC0A06F002F80120DFF8701C9B
:10035000087005F0CBFDDFF8E41B08602AE005F02B
:10036000C5FD0400DFF8D40B0068201AB0F5FA6F61
:100370000FD900224FF40071DFF8900A05F0E7FF73
:100380000220DFF83C1C087005F0B0FDDFF8AC1B64
:1003900008600FE005F0AAFD0400DFF8A00B00687C
:1003A000201AB0F5FA6F05D90020DFF8141C087088
:1003B000002000E0012010BD10B50024DFF8040C7F
:1003C0000078002805D002282FD013D3032847D067
:1003D00057E000224FF48071DFF8340A05F0B7FFD0
:1003E0000120DFF8E01B087005F080FDDFF8D81B66
:1003F000086046E005F07AFD0400DFF8CC0B0068E9
:10040000201AB0F5FA6F0FD901224FF48071DFF88E
:10041000000A05F09CFF0220DFF8A81B087005F019
:1004200065FDDFF8A41B08602BE005F05FFD04000C
:10043000DFF8940B0068201AB0F5FA6F0FD900228C
:100440004FF48071DFF8C80905F081FF0320DFF861
:10045000741B087005F04AFDDFF86C1B086010E0A3
:1004600005F044FD0400DFF8600B0068201A42F23A
:100470001171884205D30020DFF8481B0870002066
:1004800000E0012010BD2DE9F04104000D00160030
:100490001F005FF00008DFF8340B0078002806D05A
:1004A00002281ED00DD3042852D03ED39EE0012056
:1004B000DFF8181B087005F019FDDFF8141D08603F
:1004C00094E005F013FD8046DFF8040D0068B8EBFA
:1004D0000000B0F5FA6F03D90220DFF8F01A0870B7
:1004E00084E0FFB23B009BB23200FA21DFF8C40780
:1004F00005F05BFBDFF8D81A0880DFF8D40A008823
:1005000000280DD0FFB23B009BB2DFF8C40A008880
:10051000421E92B2FA21DFF89C0705F07EFC03E050
:100520000320DFF8A81A087060E02900C9B2200093
:10053000FFF762FE0020DFF89C1A08700420DFF845
:100540008C1A087005F0D2FCDFF8841C08604DE0BE
:1005500005F0CCFC8046DFF8780C0068B8EB0000B2
:10056000B0F57A7F42D9FFB23B009BB23200FA214C
:10057000DFF8400705F019FBDFF8541A0880DFF8B0
:10058000500A0088002812D0FFB23B009BB2DFF86F
:10059000400A0088421E92B2FA21DFF8180705F0DF
:1005A0003CFC0020DFF8241A087000201FE0DFF870
:1005B000240A0078401CDFF81C1A0870DFF8140ABF
:1005C00000780A2809DB0020DFF8081A08700020EC
:1005D000DFF8F8190870022009E00420DFF8EC19B0
:1005E000087005F083FCDFF8E81B08600120BDE817
:1005F000F08110B50024DFF8DC0B0078002808D06B
:10060000022828D014D3042841D02ED3052877D02F
:1006100087E0FFF781FEDFF8C01B0870DFF8B80B3A
:100620000078002803D10120DFF8A81B087078E0CB
:10063000FFF7C2FEDFF8A01B0870DFF89C0B007804
:10064000002807D10220DFF88C1B08700020DFF89B
:100650008C1B087065E00320DFF8781B087005F03C
:1006600045FCDFF87C1B08605BE005F03FFC040004
:10067000DFF86C0B0068201A41F28931884205D3FB
:10068000FFF756FD0420DFF84C1B087049E00623F5
:10069000DFF8502B0421DFF8500BFFF7F4FEDFF8F2
:1006A000381B0870DFF8300B0078002809D10520CE
:1006B000DFF8201B087005F019FCDFF8241B086028
:1006C0001DE0DFF8140B0078022818D1DFF80C0BBE
:1006D0000078401CDFF8041B0870DFF8000B00787E
:1006E000052808DB0020DFF8F41A08700020DFF886
:1006F000E41A087003E00420DFF8D81A087010E04C
:1007000005F0F4FB0400DFF8D80A0068201A41F273
:100710008931884205D30020DFF8B81A087000201C
:1007200000E0012010BD2DE9F04104000D0016008D
:100730001F005FF00008DFF8B40A0078002810D02E
:10074000022828D017D3042861D044D3062800F00B
:10075000CC80C0F0A980082800F0FE80C0F0E680C0
:100760005FE10120DFF8841A087005F0BFFBDFF8B5
:10077000901C086055E105F0B9FB8046DFF8800C5D
:100780000068B8EB0000B0F5FA6F03D90220DFF87B
:100790005C1A087045E10323A3A2FA21DFF81405CF
:1007A00005F003FADFF85C1C0880DFF8580C0088BD
:1007B00000280BD00323DFF84C0C0088421E92B2B5
:1007C000FA21DFF8F00405F028FB03E00320DFF84E
:1007D0001C1A087025E10921DFF82C0CFFF70CFD2D
:1007E0002900C9B22000FFF707FD03218FA0FFF702
:1007F00003FD0020DFF8141C08700420DFF8EC195A
:10080000087005F073FBDFF8F81B086009E105F0DC
:100810006DFB8046DFF8E80B0068B8EB0000B0F530
:100820007A7F40D9032380A2FA21DFF8880405F0FB
:10083000BCF9DFF8D01B0880DFF8C80B008800285F
:100840000FD00323DFF8BC0B0088421E92B2FA21BE
:10085000DFF8600405F0E1FA0520DFF89019087070
:1008600021E0DFF8A80B0078401CDFF8A01B08701F
:10087000DFF8980B007805280CDB0020DFF88C1BD4
:1008800008700020DFF8641908701B20FFF79DFC3A
:100890000220C7E00420DFF85419087005F026FB99
:1008A000DFF85C1B0860BCE00623DFF83829FA217A
:1008B000DFF8000405F079F9DFF8481B0880DFF85D
:1008C000440B008800280BD00623DFF8380B008883
:1008D000421E92B2FA21DFF8DC0305F09EFA03E033
:1008E0000620DFF8081908709BE00723DFF8202BAB
:1008F000FA21DFF8C00305F058F9DFF8081B08807B
:10090000DFF8000B008800280BD00723DFF8F40A7B
:100910000088421E92B2FA21DFF8980305F07DFAB2
:1009200003E00720DFF8C41808707AE03900C9B284
:100930003000FFF761FC1A20FFF747FC0020DFF8CA
:10094000CC1A08700820DFF8A418087005F0CEFA59
:10095000DFF8AC1A086064E005F0C8FA8046DFF8FA
:10096000A00A0068B8EB0000B0F57A7F59D90623D9
:10097000DFF87028FA21CF4805F017F9DFF8841A5C
:100980000880DFF8800A0088002828D00623DFF8D6
:10099000740A0088421E92B2FA21C64805F03DFA58
:1009A0000723DFF86C2AFA21C24805F0FEF8DFF8C9
:1009B000541A0880DFF84C0A0088002809D0072361
:1009C000DFF8400A0088421E92B2FA21B94805F0C9
:1009D00024FA0020DFF814180870002022E0DFF865
:1009E0002C0A0078401CDFF8241A0870DFF81C0A73
:1009F00000781E280CDB0020DFF8101A0870002099
:100A0000DFF8E81708701B20FFF7DFFB022009E082
:100A10000820DFF8D817087005F068FADFF8E01949
:100A200008600120BDE8F0810D0A3E00220D0A0099
:100A300080B5DFF8E0090078002840F03981DFF860
:100A4000640C0078002819D001281CD0022829D075
:100A5000032846D004285DD005287AD0062800F067
:100A60009780072800F0B380082800F0CF800A287C
:100A700000F0EB800B2800F0078119E10120DFF87E
:100A8000241C087014E1FFF7B4FDDFF88C1908701E
:100A9000DFF884090078002803D10220DFF8041C65
:100AA000087005E10623DFF83C270421DFF838074A
:100AB000FFF7E9FCDFF860190870DFF85C090078DF
:100AC000002804D10320DFF8DC1B087008E0DFF801
:100AD00048090078022803D10020DFF8C81B0870FD
:100AE000E6E002F0B9F8DFF830190870DFF82809FD
:100AF0000078002804D10420DFF8A81B087008E063
:100B0000DFF814090078022803D10020DFF8941BD5
:100B10000870CDE00623DFF8CC260D21DFF8880B26
:100B2000FFF7B1FCDFF8F0180870DFF8EC08007888
:100B3000002804D10520DFF86C1B087008E0DFF8FE
:100B4000D8080078022803D10020DFF8581B08706D
:100B5000AEE00623DFF88C260B21DFF8500BFFF701
:100B600092FCDFF8B4180870DFF8AC0800780028B1
:100B700004D10620DFF82C1B087008E0DFF8980885
:100B80000078022803D10020DFF8181B08708FE0DE
:100B90000623DFF850260D21DFF8140BFFF773FC56
:100BA000DFF874180870DFF870080078002804D1A6
:100BB0000720DFF8F01A087008E0DFF85C0800781A
:100BC000022803D10020DFF8DC1A087070E0062349
:100BD000DFF810261321DFF8DC0AFFF754FCDFF8FA
:100BE00038180870DFF830080078002804D1082091
:100BF000DFF8B01A087008E0DFF81C080078022857
:100C000003D10020DFF89C1A087051E00623DFF8BA
:100C1000D4250B21DFF8A00AFFF735FCDFF8F81721
:100C20000870DFF8F4070078002804D10A20DFF804
:100C3000741A087008E0DFF8E0070078022803D192
:100C40000020DFF8601A087032E00623DFF89425F0
:100C50000621DFF8680AFFF716FCDFF8BC170870FA
:100C6000DFF8B4070078002804D10B20DFF8341A2D
:100C7000087008E0DFF8A0070078022803D1002000
:100C8000DFF8201A087013E00120DFF8341A08702A
:100C90000020DFF8301A08700020DFF82C1A0870E6
:100CA0000120DFF8701708700020DFF8F8190870CD
:100CB00001BD0000E0430020DC4400203B4D00204B
:100CC0005C4900200448004010B50024DFF8FC090E
:100CD0000078002805D0022830D011D303283FD057
:100CE0008CE0DFF830070078012808D10120DFF818
:100CF000DC19087005F0FAF8DFF8D41908607DE017
:100D000005F0F4F80400DFF8C8090068201ADFF8DD
:100D1000C419884204D30220DFF8B01908700CE02F
:100D2000DFF89C090078012807D10020DFF890192E
:100D300008700220DFF8941908705FE0DFF884097A
:100D4000007800280BD10120DFF878190870002006
:100D5000DFF8841908700320DFF8701908704DE07F
:100D60001423DFF878290B21DFF87409FFF78BFBD8
:100D7000DFF870190870DFF86C090078002814D1CA
:100D80000120DFF8441908700020DFF834190870DA
:100D90000020DFF8301908700020DFF83C190870D7
:100DA0000020DFF82819087028E0DFF838090078FB
:100DB000022823D1DFF820090078401CDFF8181939
:100DC0000870DFF8140900780A2817DB0020DFF824
:100DD000081908700020DFF8F01808700020DFF80C
:100DE000E01808700020DFF8DC1808700020DFF839
:100DF000241608700020DFF8D418087010BD000019
:100E00003A4D00203C4D0020644C0020000C014075
:100E10000010014070B404000025C9B2052902DBAE
:100E2000DBB2052B01DA002030E008001E00C0B262
:100E3000F6B2B04214D2481E0500EDB2032D24DBF9
:100E4000EDB2605DDBB25E1EC9B2761AEDB2AE19CC
:100E500016447678B04201D0002017E06D1EECE712
:100E6000581E0500EDB2032D0FDBEDB2505DC9B287
:100E70004E1EDBB2F61AEDB2AE1926447678B042B9
:100E800001D0002002E06D1EECE7012070BC70472D
:100E900010B500240B23DFF85028DFF85008C17B81
:100EA000DFF84808FFF7B6FF012801D1012043E031
:100EB0000A23DFF83C28DFF83408C17BDFF82C0870
:100EC000FFF7A8FF012801D1012035E00B23DFF84F
:100ED0002428DFF81808C17BDFF81008FFF79AFF15
:100EE000012801D1012027E0DFF80C080078012853
:100EF00021D100200400E4B2052C1CDADFF8FC0745
:100F0000E4B2112101FB04F10844C37BDFF8EC07D4
:100F1000E4B2112101FB04F100EB0102DFF8CC0780
:100F2000C17BDFF8C807FFF775FF012801D1012059
:100F300002E0641CDFE7002010BD0000684C0020C8
:100F400070B504000D00002600200600F6B2052E44
:100F50001BDADFF8A807F6B2112101FB06F10844FD
:100F6000C37BDFF89807F6B2112101FB06F100EB15
:100F700001022900C9B22000FFF74CFF012802D16D
:100F8000701CC0B202E0761CE0E7002070BD0021BA
:100F900000200100C9B205290EDADFF86007C9B2E6
:100FA000112202FB01F21044C07B002802D1481C30
:100FB000C0B202E0491CEDE7002070476B4D0020F5
:100FC0006C4D00206D4D00206C4C00206E4D0020BB
:100FD0000E4D00206F4D00203EB50025002400205E
:100FE0000500EDB27D2D0EDADFF81407EDB2405D9D
:100FF000222806D16846E4B20555641CE4B2062CEA
:1010000001DA6D1CEDE7E4B2062C01D00120DEE030
:101010000020040000200500EDB27D2D0EDADFF87F
:10102000E006EDB2405D0A2806D102A8E4B20555FB
:10103000641CE4B2032C01DA6D1CEDE7E4B2032C6E
:1010400001D00120C3E09DF80500801C9DF8091027
:10105000884211D19DF8000008280DD19DF80100AB
:10106000801C9DF80210884206D19DF80300801C68
:101070009DF80410884201D00120A8E09DF80100ED
:101080009DF80010401A401EDFF86016C8739DF8E6
:1010900003009DF80210401A401EDFF8501681F838
:1010A00024009DF805009DF80410401A401EDFF84A
:1010B0003C1681F83B009DF80A009DF80910401A83
:1010C000DFF8281681F87800DFF82006C07B1028AA
:1010D00011DADFF8180690F8240015280BDADFF88B
:1010E0000C0690F83B00172805DADFF8000690F8A8
:1010F00078003D2801DB012069E000200500280080
:10110000DFF8E815C97BC0B288420DD2DFF8F005E0
:10111000EDB29DF80010491908444078DFF8CC156D
:10112000EDB248556D1CEAE7002005002800DFF805
:10113000BC1591F82410C0B288420ED2DFF8C00569
:10114000EDB29DF80210491908444078DFF89C156B
:10115000EDB2294408746D1CE8E700200500280062
:10116000DFF8881591F83B10C0B288420FD2DFF843
:101170009005EDB29DF80410491908444078DFF855
:101180006C15EDB2294481F825006D1CE7E70020BD
:1011900005002800DFF8541591F87810C0B2884295
:1011A0000ED2DFF85C05EDB29DF809104919405CDC
:1011B000DFF83815EDB2294481F83C006D1CE8E7F2
:1011C000FFF766FE012801D1002000E001203EBDAE
:1011D000704C0020704D0020714D0020724D002099
:1011E000744C0020B4C70008ACC70008734D002041
:1011F00010B402000023C9B2092931DBC9B2102999
:101200002EDA10782B2815D10120030018000C00CD
:10121000C0B2E4B2A0420BD2DBB2D05C3A2803DA0F
:10122000DBB2D05C302801DA01201AE05B1CEDE76C
:10123000002016E00020030018000C00C0B2E4B249
:10124000A0420BD2DBB2D05C3A2803DADBB2D05C2E
:10125000302801DA012004E05B1CEDE7002000E00B
:10126000012010BC704738B500240025DFF8940435
:10127000C07A31285CD1DFF88C04007B2C2857D150
:101280003A222821DFF87C0404F02FFD0500ADB2DE
:10129000002D00F0AE8028000E38DFF87C1D0870AD
:1012A0000D200090DFF8700D0378DFF8702D2821F5
:1012B000DFF8500404F032FDDFF85C0D0178DFF850
:1012C0005C0D04F0E4FBDFF840140860A81CC0B219
:1012D0000090DFF834040368DBB2DFF8402D2821EA
:1012E000DFF8200404F01AFD00200400E4B2DFF867
:1012F0001804006884427CD2DFF8200DE4B2005D5F
:10130000DFF80814DFF8082412788854DFF80004A6
:101310000078401CDFF8F8130870DFF8F403007859
:10132000282803DB0020DFF8E8130870641CDDE7E1
:10133000DFF8D003C07A30285BD1DFF8C803007B28
:101340002C2856D13A222821DFF8B80304F0CDFC2E
:101350000500ADB2002D4CD028000E38DFF8B81CC7
:1013600008700D200090DFF8B00C0378DFF8AC2C8B
:101370002821DFF8900304F0D1FCDFF89C0C017801
:10138000DFF8980C04F083FBDFF87C13086028007A
:10139000C0B20090DFF870030368DBB2DFF87C2C8A
:1013A0002821DFF8600304F0B9FC00200400E4B257
:1013B000DFF85403006884421BD2DFF8600CE4B20B
:1013C000005DDFF85013DFF8502312788854DFF8FF
:1013D00048030078401CDFF840130870DFF838033A
:1013E0000078282803DB0020DFF82C130870641C29
:1013F000DDE72821DFF80C0304F0FEFC31BD00001E
:10140000784C0020104D002014C60008744D0020B8
:10141000BCC700083F4D0020764D002030B583B09A
:1014200000240025BD480078002805D002282BD0D4
:101430000AD3032835D034E10120B849087004F0FC
:1014400055FDB74908602CE104F050FD0400B44894
:101450000068201AB0F57A7F15D9FE222821AB4802
:1014600004F043FCAF490880AE480088002807D04C
:101470000220AA49087004F039FDA949086002E079
:101480000020A64908700CE104F030FD0400A448D7
:101490000068201AB0F5FA7F02D903209F4908702E
:1014A000FFE0FE222821994804F01FFC9D49088096
:1014B0009C480088002800F0F180012399480088AA
:1014C000421E92B22821914804F0A7FC954800885A
:1014D000401EC0B200901423934A28218B4804F088
:1014E0001DFC9148807888490860874800688E49CB
:1014F000497811EB002084490860834800688B49D3
:101500000968884240F0CA808748C078022859D1CB
:1015100001220821844804F0D0FC050028008249FB
:10152000097AC0B2884240F0B4807F48C0798049CF
:1015300008607F4800687C49897911EB00207C496C
:1015400008607B4800687849497911EB00207849A8
:101550000860774800687449097911EB00207449E4
:10156000086073480168684604F054FF7148694692
:10157000062205F083F86F48C0786F4988706D487F
:1015800000796D4948706B4840796B49C87069486B
:1015900000786A490870674840786849487065482B
:1015A0008078664988700120654908700120654986
:1015B000087065480078401D634908700120634940
:1015C000087066E05848C07803281FD10122062120
:1015D000554804F072FC0500280053498979C0B2CF
:1015E000884256D1504840795149086050480068B7
:1015F0004D49097911EB00204D4908604C480068BD
:101600005349088001205349087042E04648C07899
:1016100005280FD101220421434804F04EFC0500A7
:10162000280041490979C0B2884232D101204A4993
:1016300008702EE03C48C07810282AD101220621EB
:10164000394804F03AFC0500280037498979C0B2CE
:1016500088421ED1344840793549086034480068D2
:101660003149097911EB00203149086030480068A0
:10167000B0F5A07F0DD82E4800683849086037487B
:101680000168C12005F0DDF805F082F80120344939
:10169000087034480078401D3249087000201F4906
:1016A000087037BD754D0020A4C3000820C600088F
:1016B000B4C300082CC300082CC60008C4C7000827
:1016C000414D0020424D0020404D0020774D00202C
:1016D0007C4C0020E1930400794D0020CCC200082E
:1016E00038C60008784D002044C600082446002073
:1016F00050C600085CC600089C4D002044480020ED
:10170000A4450020944A00205C4C0020444A00205C
:101710003D4D00206C4A00203E4D00207A4D0020B7
:10172000804C0020124D0020BC4A00200000002008
:10173000604C0020084C0020E84C0020E04C0020C9
:10174000A44D0020384D0020BC000020664D002034
:101750000C4D0020684D0020674D0020AC4C00204F
:10176000694D0020BD00002070B582B00024002526
:10177000DFF81C0E0078002813D0022864D01BD399
:10178000042800F0B980C0F08D80062801F0A28006
:10179000C1F09680082801F0DA80C1F0AB8001F03A
:1017A000ECB80120DFF8E81D087004F09FFBDFF8BB
:1017B000E41D086001F0E1B804F098FB0400DFF8D4
:1017C000D40D0068201AB0F57A7F3BD90723DFF8E3
:1017D000C82DFA21DFF8C40D04F0E7F9DFF8C01DC9
:1017E0000880DFF8BC0D008800280DD00120DFF84C
:1017F000B41D08700220DFF8981D087004F076FB15
:10180000DFF8901D08601DE00B23DFF89C2DFA2106
:10181000DFF8880D04F0C9F9DFF8841D0880DFF8CF
:10182000800D0088002809D00720DFF8641D0870AB
:1018300004F05CFBDFF85C1D086003E00020DFF8CB
:10184000501D087001F099B804F050FB0400DFF857
:10185000440D0068201AB0F5FA6F21D97D21DFF818
:10186000240E04F0C9FADFF8380D0088401EC0B21B
:1018700000907D23DFF80C2EFA21DFF8200D04F014
:101880004DFA0723DFF8180D0088421E92B2FA21A4
:10189000DFF8080D04F0C1FA0320DFF8F41C08702B
:1018A00001F06BB80723DFF8F02C7D21DFF8D40DB1
:1018B00004F07BF9DFF8E81C0880DFF8E40C00880E
:1018C000002813D0FFF788FBDFF8141E0870DFF83C
:1018D000100E0078002804D10420DFF8B41C087032
:1018E00008E00020DFF8A81C087003E00020DFF803
:1018F000A01C087001F041B8DFF8E80D0078401D29
:10190000DFF8E01D08700A23DFF8DC2DDFF8DC0DBE
:1019100090F8781089B2DFF8D80D04F046F9DFF8B6
:10192000801C0880DFF8780C0088002800F0A88070
:10193000DFF8B80D90F87800352880F29380DFF852
:10194000AC0D90F878000C38DFF8CC160870DFF892
:10195000500C00880930C0B20090DFF8BC06037854
:10196000DFF8B826DFF8840D90F87810DFF8800DE6
:1019700004F0D4F9DFF8A0060178DFF8A006FFF73D
:1019800037FC002869D1DFF890060078102864DA67
:10199000DFF884060178DFF88406FFF7D1FA002823
:1019A00056D1FFF7F4FA0500EDB2002D4BD000231D
:1019B000DFF864060278DFF86416DFF8380DEDB260
:1019C000112606FB05F63044113804F002FADFF860
:1019D00048060078DFF81C1DEDB2112202FB05F26B
:1019E000114401F8020C0120DFF8081DEDB21122AC
:1019F00002FB05F2114401F8010CDFF8F80CEDB21E
:101A0000112101FB05F1084410F8013CDFF8E40C5A
:101A1000EDB2112101FB05F1084410F8022CDFF8AA
:101A2000D40CEDB2112101FB05F10844B0F1110114
:101A3000681EC0B204F023FF04F0AAFE0020DFF805
:101A4000B81C087012E00320DFF8AC1C08700DE031
:101A50000220DFF8A41C087008E00120DFF8981CC1
:101A6000087003E00420DFF8901C08700120DFF804
:101A70008C1C08700520DFF8181B087000F07DBF73
:101A80000A23DFF87C2CDFF8640C90F8781089B218
:101A9000DFF85C0C04F089F8DFF8041B0880DFF83D
:101AA000000B0088002800F09880DFF8400C90F8C8
:101AB0007800352880F28380DFF8300C90F87800C9
:101AC0000C38DFF854150870DFF8D40A00880930A4
:101AD000C0B20090DFF840050378DFF84025DFF85A
:101AE0000C0C90F87810DFF8080C04F017F9DFF808
:101AF00028050178DFF82405FFF77AFB002859D183
:101B0000DFF814050078102854DADFF80C050178A6
:101B1000DFF80805FFF714FA0500EDB2002D44D0F8
:101B20000F21DFF8D00BEDB2112202FB05F21044B9
:101B3000113804F061F90020DFF8B81BEDB2112272
:101B400002FB05F2114401F8020C0020DFF8A41B8F
:101B5000EDB2112202FB05F2114401F8010CDFF88D
:101B6000940BEDB2112101FB05F1084410F8013C82
:101B7000DFF8800BEDB2112101FB05F1084410F8EC
:101B8000022CDFF8700BEDB2112101FB05F10844C6
:101B9000B0F11101681EC0B204F071FE04F0F8FD4E
:101BA0000020DFF8D81D08700DE00220DFF8CC1D02
:101BB000087008E00120DFF8C41D087003E004206D
:101BC000DFF8B81D08700120DFF8B41D087005208B
:101BD000DFF8BC19087000F0D0BE0A23DFF8A42D8E
:101BE000DFF8080B90F8781089B2DFF8040B03F0E7
:101BF000DCFFDFF8AC190880DFF8A40900880028B2
:101C000009D00120DFF8801D08700520DFF8801959
:101C1000087000F0B2BE0623DFF8702DDFF8CC0AA2
:101C200090F8781089B2DFF8C80A03F0BEFFDFF839
:101C300070190880DFF868090088002852D0DFF8A2
:101C4000AC0A90F8780031283EDADFF8A00A90F864
:101C500078000838DFF8C0130870DFF844090088FE
:101C6000401DC0B20090EC480378EC4ADFF87C0AD3
:101C700090F87810DFF8780A04F050F8E648017818
:101C8000E64803F004FFDFF8081D0860DFF8000DE8
:101C90000068B0F5803F12D2DFF8F40C0068DFF87E
:101CA000F41C0860DFF8EC0C01686E2004F0C9FD3C
:101CB00004F06EFD0020DFF8E01C087008E0012051
:101CC000DFF8D41C087003E00220DFF8CC1C087099
:101CD0000120DFF8C81C08700520DFF8B418087070
:101CE00000F04BBE0723DFF8B82CDFF8000A90F8AD
:101CF000781089B2DFF8F80903F057FFDFF8A01871
:101D00000880DFF89C080088002809D00120DFF84F
:101D1000941C08700520DFF87818087000F02DBEBC
:101D20000923DFF8842CDFF8C40990F8781089B211
:101D3000DFF8BC0903F039FFDFF864180880DFF82A
:101D400060080088002800F0B0800123B4A2DFF80A
:101D50009C0990F8781089B2DFF8940903F025FF08
:101D6000DFF8481C0880DFF8380800880A30DFF800
:101D70003C1C0988884280F28A80DFF8300C008899
:101D8000DFF81C180988401A0938A3490870DFF8E1
:101D9000100800880830C0B200909F4803789F4A1E
:101DA000DFF8480990F87810DFF8440903F0B6FF2F
:101DB000DFF8380990F87800DFF8F01B0988401A3E
:101DC000401EDFF8EC1B0870DFF8E00B0088C0B2A3
:101DD0000090DFF8DC0B0378DFF8D82BDFF80C0974
:101DE00090F87810DFF8080903F098FFDFF8C00BCF
:101DF0000178DFF8C00B03F04AFEDFF8BC1B086077
:101E0000DFF8B40B006810F1010F3BD000238248CB
:101E100002788249DFF8A40B03F0DBFF7E480078EC
:101E2000DFF8981B08750023DFF8840B0278DFF8D1
:101E3000841BDFF88C0B03F0CCFFDFF8740B007809
:101E4000DFF8781BC8771422DFF8701B782004F0C5
:101E500000FDDFF8680B017D8C2004F0F2FC0A2203
:101E6000DFF85C1B8D2004F0F4FCDFF8500BC17F21
:101E7000972004F0E6FC04F08BFC0020DFF8441B04
:101E8000087008E00120DFF83C1B087003E0022026
:101E9000DFF8301B08700120DFF82C1B08700520CC
:101EA000DFF8EC16087000F068BD0923DFF81C2B82
:101EB000DFF8380890F8781089B2DFF8340803F0BA
:101EC00074FEDFF8DC160880DFF8D40600880028EE
:101ED00000F0B680012352A2DFF8100890F87810C5
:101EE00089B2DFF80C0803F060FEDFF8C01A088042
:101EF000DFF8AC0600880A30DFF8B01A098888429B
:101F000080F29080DFF8A40A0088DFF89416098830
:101F1000401A093840490870DFF884060088083004
:101F2000C0B200903C4803783C4ADFF8C00790F804
:101F30007810DFF8BC0703F0F1FEDFF8B00790F887
:101F40007800DFF8681A0988401A401EDFF8601A26
:101F50000870DFF8580A0088C0B20090DFF8500A15
:101F60000378DFF8502ADFF8840790F87810DFF85C
:101F7000800703F0D3FEDFF8380A0178DFF8340A6F
:101F800003F085FDDFF8301A0860DFF82C0A0068DE
:101F900010F1010F3BD000231F4802781F49DFF8E2
:101FA000300A03F016FF1C480078DFF8241A087581
:101FB0000023DFF8FC090278DFF8F819DFF8140ACB
:101FC00003F007FFDFF8E8090078DFF8041AC877A4
:101FD0001422DFF8FC19A02004F03BFCDFF8F00924
:101FE000017DB42004F02DFC0A22DFF8E819B520A9
:101FF00004F02FFCDFF8D809C17FBF2004F021FCDA
:1020000004F0C6FB0020DFF8D01908700EE00120B4
:10201000DFF8C419087009E0454D0020904B0020FE
:102020002C0000000220DFF8B01908700120DFF852
:10203000AC1908700520DFF85815087000F09DBC39
:102040000D23DFF89C29DFF8A40690F8781089B2F8
:10205000DFF89C0603F0A9FDDFF844150880DFF8DF
:102060004005008800286CD0DFF8800690F87800E2
:10207000362858DA02236CA2DFF8700690F8781040
:1020800089B2DFF86C0603F090FDDFF820190880B4
:10209000DFF80C0500880D30DFF810190988884238
:1020A00012D10120DFF8141981F82000DFF80C09A3
:1020B00090F82010982004F0C4FB04F069FB002085
:1020C000DFF8581B087032E0032358A2DFF81C0623
:1020D00090F8781089B2DFF8180603F066FDDFF893
:1020E000CC180880DFF8B80400880D30DFF8BC1881
:1020F0000988884212D10020DFF8C01881F820003A
:10210000DFF8B80890F82010982004F09AFB04F04B
:102110003FFB0020DFF8041B087008E00120DFF817
:10212000FC1A087003E00120DFF8F01A08700120A3
:10213000DFF8EC1A08700520DFF85414087000F07E
:102140001CBC0D23DFF8DC2ADFF8A00590F878101E
:1021500089B2DFF89C0503F028FDDFF844140880FD
:10216000DFF83C04008800286ED0DFF8800590F886
:10217000780036285CDA02232BA2DFF8700590F88D
:10218000781089B2DFF8680503F00FFDDFF81C183E
:102190000880DFF80C0400880D30DFF8101809887B
:1021A000884212D10120DFF8281881F82000DFF8DA
:1021B000200890F82010C02004F043FB04F0E8FA57
:1021C0000020DFF8641A087036E0032317A2DFF856
:1021D0001C0590F8781089B2DFF8140503F0E5FCCF
:1021E000DFF8C8170880DFF8B80300880D30DFF883
:1021F000BC170988884212D10020DFF8D41781F873
:102200002000DFF8CC0790F82010C02004F019FB64
:1022100004F0BEFA0020DFF8101A08700CE001206C
:10222000DFF8041A087007E04F4E00004F464600E2
:102230000120DFF8F41908700120DFF8F0190870A8
:102240000520D349087098E30723DFF8E429DFF875
:102250009C0490F8781089B2DFF8940403F0A5FC90
:10226000CF490880CE480088002807D00120DFF839
:10227000C41908700520C64908707EE30723DFF8FB
:10228000B829DFF8680490F8781089B2DFF86004A4
:1022900003F08BFCC2490880C148008800280BD09D
:1022A0000120DFF8981908700120DFF894190870F0
:1022B0000520B749087060E30723DFF88829DFF8B5
:1022C0002C0490F8781089B2DFF8240403F06DFC38
:1022D000B3490880B2480088002809D004F079FC8E
:1022E0000120DFF8641908700520A949087044E34B
:1022F0000D23DFF85829DFF8F40390F8781089B23D
:10230000DFF8EC0303F051FCA5490880A4480088DD
:10231000002813D004F05DFC04F033FB0120DFF84B
:10232000201908700120DFF8141908700120DFF867
:10233000201908700520964908701EE30823DFF86D
:102340001429DFF8A80390F8781089B2DFF8A00309
:1023500003F02BFC9249088091480088002862D045
:10236000DFF8880390F87800312850DA0223C6A2FB
:10237000DFF8780390F8781089B2DFF8740303F07F
:1023800014FCDFF828160880854800880830DFF83C
:102390001C160988884210D10120DFF8B81B08708C
:1023A000DFF8B00B01786F2004F04BFA04F0F0F97D
:1023B0000020DFF8A41B08702DE00323C7A2CB4840
:1023C00090F8781089B2CA4803F0EFFBDFF8DC150B
:1023D0000880734800880830DFF8D01509888842E3
:1023E00010D10020DFF86C1B0870DFF8680B017853
:1023F0006F2004F026FA04F0CBF90020DFF8581B18
:10240000087008E00120DFF8501B087003E001208D
:10241000DFF8441B08700120DFF8401B087005201E
:102420005B490870A9E20D23DFF8342BAF4890F820
:10243000781089B2AE4803F0B8FB59490880584873
:10244000008800284FD0A94890F8780038283EDA54
:10245000A64890F878000F38DFF8081B087050483D
:1024600000880C30C0B20090DFF8F80A0378DFF87B
:10247000F82A9E4890F878109D4803F04FFCDFF84A
:10248000E40A0178DFF8E00A03F001FBDFF8001549
:102490000860DFF8FC040068B0F5803F12D2DFF876
:1024A000F0040068DFF8C41A0860DFF8C00A0168A9
:1024B000702004F0C6F904F06BF90020DFF8B01AC0
:1024C000087008E00120DFF8A81A087003E0022075
:1024D000DFF89C1A08700120DFF8981A08700520B0
:1024E0002B49087049E20C23DFF88C2A7F4890F8CA
:1024F000781089B27E4803F058FB294908802848A3
:10250000008800285FD0794890F8780037284DDAA5
:10251000764890F878000E38DFF8481A087020489E
:1025200000880B30C0B20090DFF8380A0378DFF87B
:10253000382A6E4890F878106D4803F0EFFBDFF80A
:10254000240A0178DFF8200A03F0A1FADFF840142A
:102550000860DFF83C040068B0F5803F12D2DFF875
:1025600030040068DFF8401C0860DFF83C0C0168AC
:10257000712004F066F904F00BF90020DFF82C1C40
:10258000087017E00120DFF8241C087012E000BF7B
:102590007B4D0020844C0020CCC70008E043002085
:1025A000144D0020434D002068C600080220DFF8CB
:1025B000FC1B08700120DFF8F81B08700520DFF80D
:1025C000DC1D0870D9E10623DFF8E82B474890F8B6
:1025D000781089B2464803F0E8FADFF8DC1C08807E
:1025E000DFF8D40C008800285DD0404890F87800CF
:1025F00031284BDA3D4890F878000838DFF8641944
:102600000870DFF8B40C0088401DC0B20090DFF8FD
:1026100054090378DFF85029344890F8781034488A
:1026200003F07CFBDFF83C090178DFF83C0903F09C
:102630002EFAD7490860D6480068B0F5803F1BD213
:10264000D3480068B0F5A07F11D80020DFF86C1CDB
:102650000870CF480068DFF8681C0860DFF8600C7D
:102660000168C12004F0EDF804F092F812E00120B6
:10267000DFF8481C08700DE00120DFF8401C0870EE
:1026800008E000BFA44500204F4E00000120DFF805
:102690002C1C08700120DFF82C1C08700520DFF8C6
:1026A000FC1C087069E10623DFF81C2C0F4890F829
:1026B000781089B20E4803F078FADFF8FC1B088026
:1026C000DFF8F40B008800281CD00120DFF8FC1B89
:1026D00008700520DFF8C41C08704EE14F46460024
:1026E0007C4D0020BC00002074C600082446002059
:1026F0006046002044480020484D0020474D0020FF
:1027000080C600080D23DFF89C2CDFF89C0C90F8A5
:10271000781089B2DFF8940C03F047FADFF8981BC1
:102720000880DFF8940B0088002800F0A780DFF80D
:10273000880B00880C30C0B200900223DFF82828F4
:10274000DFF8640C90F87810DFF8600C03F0E6FA1C
:102750000221DFF8140803F09AF9DFF8541C88709E
:10276000DFF8540B00880F30C0B200900223DFF86E
:10277000F827DFF8340C90F87810DFF8300C03F00D
:10278000CDFA0221DFF8E00703F081F9DFF8201C21
:102790004870DFF8240B00881230C0B2009002238A
:1027A000DFF8C427DFF8000C90F87810DFF8FC0B96
:1027B00003F0B4FA0221DFF8B00703F068F9DFF89C
:1027C000F01BC870DFF8F00A00881530C0B2009026
:1027D0000223DFF89427DFF8D00B90F87810DFF8A9
:1027E000CC0B03F09BFA0221DFF87C0703F04FF9D2
:1027F000DFF88C1C0870DFF8C00A00881830C0B2FF
:1028000000900223DFF86027DFF89C0B90F8781027
:10281000DFF8980B03F082FA0221DFF84C0703F08F
:1028200036F9DFF85C1C4870DFF88C0A00881B3032
:10283000C0B200900223DFF83027DFF86C0B90F86D
:102840007810DFF8680B03F069FA0221DFF8180747
:1028500003F01DF9DFF8281C88700120DFF8241C24
:1028600008700120DFF8201C08700120DFF8B41C7C
:1028700008700520DFF8241B08707EE00A23DFF8CB
:10288000A82CDFF8240B90F8781089B2DFF81C0B25
:1028900003F08BF9DFF8201A0880DFF81C0A0088A3
:1028A000002808D00120DFF87C1C08700520DFF824
:1028B000EC1A087061E00520DFF8E01A08705CE0AF
:1028C0000620DFF8D81A087003F010FBDFF85C1C54
:1028D000086052E003F00AFB0400DFF8500C0068C7
:1028E000201A41F28931884203D30020DFF8AC1A64
:1028F000087042E003F0FAFA0400DFF8300C0068D8
:10290000201AB0F5FA6F21D92821DFF88C0C03F0DA
:1029100073FADFF8A4090088401EC0B20090282393
:10292000DFF8742CFA21DFF8740C03F0F7F90B23AD
:10293000DFF884090088421E92B2FA21DFF85C0CAD
:1029400003F06BFA0820DFF8541A087015E00B2327
:10295000DFF84C2C2821DFF8400C03F026F9DFF8D3
:1029600058190880DFF850090088012801D1FEF7C6
:102970007AFC0020DFF8241A087073BD4A4D00204D
:10298000494D00208CC600084B4D0020D4C70008DC
:102990005C4C0020000000204D4D00204C4D0020DC
:1029A000DCC700084E4D002098C60008164D0020D8
:1029B000464D0020A44B0020604C0020E44A00203B
:1029C000F94A0020504D00204F4D0020A4C60008B9
:1029D000084B00201D4B0020524D0020514D00207F
:1029E000C4C3000810B50024DFF8E80C0078002804
:1029F00007D002281ED00ED3042800F0B9803AD3A5
:102A000000E10120DFF8CC1C087003F06FFADFF85A
:102A1000501E0860F6E003F069FA0400DFF8400E8B
:102A20000068201AB0F5FA6F03D90220DFF8A41C61
:102A30000870E7E00623DFF8A02CFA21DFF85C0B32
:102A400003F0B3F8DFF8941C0880DFF8900C0088DE
:102A500000280BD00623DFF8840C0088421E92B2B7
:102A6000FA21DFF8380B03F0D8F903E00320DFF890
:102A7000641C0870C6E00921DFF8640CFDF7BCFB9C
:102A80000222DFF8E414DFF82809C07803F06CF8BC
:102A90000221DFF8D404FDF7AFFB01215AA0FDF7B6
:102AA000ABFB0222DFF8C014DFF80409407803F022
:102AB0005BF80221DFF8B004FDF79EFB012152A074
:102AC000FDF79AFB0222DFF8A014DFF8E408807813
:102AD00003F04AF80221DFF89004FDF78DFB012195
:102AE0004AA0FDF789FB0222DFF87C14DFF8900989
:102AF000007803F039F80221DFF86C04FDF77CFB65
:102B0000012143A0FDF778FB0222DFF85C14DFF817
:102B10007009407803F028F80221DFF84C04FDF733
:102B20006BFB01213AA0FDF767FB0222DFF83814A6
:102B3000DFF84C09807803F017F80221DFF8280449
:102B4000FDF75AFB032133A0FDF756FB022132A00B
:102B5000FDF752FB0020DFF8481C08700420DFF866
:102B6000741B087003F0C2F9DFF8F41C086049E038
:102B700003F0BCF90400DFF8E80C0068201AB0F597
:102B80007A7F3FD90623DFF8502BFA21DFF80C0AB1
:102B900003F00BF8DFF8441B0880DFF8400B0088D7
:102BA000002814D00623DFF8340B0088421E92B2AE
:102BB000FA21DFF8E80903F030F90020DFF8E01B24
:102BC00008700020DFF80C1B087000201BE0DFF805
:102BD000D00B0078401CDFF8C81B0870DFF8C00B72
:102BE0000078052809DB0020DFF8B41B08700020FE
:102BF000DFF8E01A0870022005E003F077F9DFF84B
:102C0000601C0860012010BD2F0000002C00000097
:102C10003A0000002B303700220D0000544D0020F8
:102C2000534D0020D4C30008564D0020554D0020C0
:102C3000E4C70008574D0020ECC70008584D00209D
:102C4000624D0020B0C60008634D0020E4C30008B8
:102C5000594D0020BCC6000880B5DFF8080C00788C
:102C6000002806D0022822D00DD3042853D03FD309
:102C70006DE10120DFF8EC1B087003F037F9DFF895
:102C80008C1E086063E103F031F9DFF8DC1B08609B
:102C9000DFF8D40B0068DFF8741E0968401AB0F53D
:102CA000FA6F03D90220DFF8BC1B08704FE106233E
:102CB000DFF8242AFA21DFF8E40802F076FFDFF8D3
:102CC000AC1B0880DFF8A40B008800280BD006237B
:102CD000DFF8980B0088421E92B2FA21DFF8BC0898
:102CE00003F09BF803E00320DFF8781B08702EE167
:102CF0000921DFF87C0BFDF77FFA0020DFF8741B59
:102D000008700420DFF85C1B087003F0EFF8DFF8B0
:102D1000FC1D08601BE103F0E9F8DFF84C1B0860BC
:102D2000DFF8440B0068DFF8E41D0968401AB0F5CD
:102D30007A7F40F20C810623DFF89C29FA21DFF824
:102D40005C0802F032FFDFF8241B0880DFF81C0B60
:102D50000088002800F0E0800623DFF8100B0088D0
:102D6000421E92B2FA21DFF8340803F056F8082325
:102D7000DFF8042BFA21DFF8240802F016FFDFF851
:102D8000EC1A0880DFF8E40A0088002800F0BA8016
:102D9000DFF8D80A0088401EC0B200902823DFF870
:102DA000DC2AFA21DFF8F40702F0B8FF0823DFF885
:102DB000BC0A0088421E92B2FA21DFF8E00703F055
:102DC0002CF80823DFF8B02A2821DFF8B00A02F037
:102DD000ECFEDFF8981A0880DFF8900A00880028D7
:102DE00000F08680DFF8840A0088C01DC0B2009021
:102DF00002235D4A2821DFF8840A02F08FFF0221B6
:102E0000594802F044FEDFF8A815C870DFF85C0AE4
:102E100000880A30C0B200900223534A2821DFF80C
:102E20005C0A02F07BFF02214F4802F030FEDFF81F
:102E300080154870DFF8340A00880D30C0B2009069
:102E40000223494A2821DFF8340A02F067FF0221F1
:102E5000454802F01CFEDFF858158870DFF80C0AB0
:102E600000881030C0B2009002233F4A2821DFF8CA
:102E70000C0A02F053FF02213B4802F008FEDFF883
:102E800000160870DFF8E40900881330C0B2009023
:102E90000223354A2821DFF8E40902F03FFF02212E
:102EA000314802F0F4FDDFF8D8154870DFF8BC09AE
:102EB00000881630C0B2009002232B4A2821DFF888
:102EC000BC0902F02BFF0221274802F0E0FDDFF8E9
:102ED000B01588700120DFF8AC1508700020DFF80D
:102EE000941908700020DFF87C19087000202FE08A
:102EF0000020DFF8801908700020DFF868190870DA
:102F0000022025E00020DFF86C1908700020DFF8AF
:102F10005419087002201BE0DFF858090078401CA3
:102F2000DFF850190870DFF84C090078052809DB34
:102F30000020DFF8401908700020DFF82819087019
:102F4000022005E002F0D2FFDFF8C01B086001207C
:102F500002BD00009C4D00205B4D00205A4D00201A
:102F6000F4C30008454D0020904B0020A44C0020E5
:102F70005D4D00205C4D002004C4000880B5002099
:102F8000DFF8A41D0870DFF8A00D007800900D2375
:102F9000DFF8182C7821DFF8E00C02F0FFFEDFF8F4
:102FA000880D00780D30DFF8801D08700222DFF8F0
:102FB000CC1CDFF8FC0BC07802F0D6FDDFF8680D02
:102FC000007800900223DFF8B42C7821DFF8A80CF9
:102FD00002F0E4FEDFF8500D0078801CDFF8481D99
:102FE0000870DFF8440D007800900123B1A2782129
:102FF000DFF8840C02F0D2FEDFF82C0D0078401CC4
:10300000DFF8241D08700222DFF8701CDFF8A00B27
:10301000007902F0A9FDDFF8100D0078009002237E
:10302000DFF8582C7821DFF8500C02F0B7FEDFF8FB
:10303000F80C0078801CDFF8F01C0870DFF8E80C52
:103040000078009001239BA27821DFF82C0C02F07D
:10305000A5FEDFF8D40C0078401CDFF8CC1C08700B
:103060000222DFF8181CDFF8480B407902F07CFDE3
:10307000DFF8B40C007800900223DFF8002C7821F0
:10308000DFF8F40B02F08AFEDFF89C0C0078801C5D
:10309000DFF8941C0870DFF8900C00780090012392
:1030A000BDA27821DFF8D00B02F078FEDFF8780CB3
:1030B0000078401CDFF8701C08700222DFF8BC1B8F
:1030C000DFF8EC0A007802F04FFDDFF85C0C0078C6
:1030D00000900223DFF8A42B7821DFF89C0B02F08C
:1030E0005DFEDFF8440C0078801CDFF83C1C0870A3
:1030F000DFF8340C007800900123A9A27821DFF8D2
:10310000780B02F04BFEDFF8200C0078401CDFF853
:10311000181C08700222DFF8641BDFF8940A40785C
:1031200002F022FDDFF8000C007800900223DFF8A7
:103130004C2B7821DFF8400B02F030FEDFF8E80B73
:103140000078801CDFF8E01B0870DFF8DC0B0078EB
:103150000090012392A27821DFF81C0B02F01EFEE2
:10316000DFF8C40B0078401CDFF8BC1B087002229B
:10317000DFF8081BDFF8380A807802F0F5FCDFF88A
:10318000A80B007800900223DFF8F02A7821DFF8FE
:10319000E80A02F003FEDFF8900B0078801CDFF8ED
:1031A000881B087001BD0000A84C00205F4D002066
:1031B0005E4D0020F4C7000880B50020DFF8681BD2
:1031C0000870DFF86C0B0078002813D1DFF8580B7B
:1031D000007800900C23DFF85C2B7821DFF8980A48
:1031E00002F0DCFDDFF8400B00780C30DFF8381B14
:1031F00008705DE0DFF8380B0078012813D1DFF8A4
:10320000280B007800900F23DFF82C2B7821DFF8B3
:10321000680A02F0C3FDDFF8100B00780F30DFF80A
:10322000081B087044E0DFF8080B0078022813D16F
:10323000DFF8F40A007800901323DFF8002B7821E0
:10324000DFF8340A02F0AAFDDFF8DC0A0078133058
:10325000DFF8D41A08702BE0DFF8D40A00780328CE
:1032600013D1DFF8C40A007800900E23DFF8C42BD6
:103270007821DFF8040A02F091FDDFF8AC0A00784B
:103280000E30DFF8A41A087012E0DFF89C0A00780C
:1032900000900E23DFF8A02B7821DFF8DC0902F084
:1032A0007DFDDFF8840A00780E30DFF87C1A0870A4
:1032B00001BD00002F000000144D0020654D0020CE
:1032C000AC4C0020644D0020FCC70008604D00207D
:1032D00080B50020DFF8501A0870DFF8600B007826
:1032E000002813D1DFF8400A007800900C23DFF8A3
:1032F000502B7821DFF8800902F050FDDFF8280A12
:1033000000780C30DFF8201A087044E0DFF82C0B4E
:103310000078012813D1DFF8100A007800900F23FD
:10332000DFF8202B7821DFF8500902F037FDDFF8B5
:10333000F80900780F30DFF8F01908702BE0DFF89B
:10334000FC0A0078022813D1DFF8DC09007800902D
:103350001723DFF8F42A7821DFF81C0902F01EFD9C
:10336000DFF8C40900781730DFF8BC19087012E0E4
:10337000DFF8B409007800900E23DFF8D02A782116
:10338000DFF8F40802F00AFDDFF89C0900780E303F
:10339000DFF89419087001BD2C0000007B4D00205F
:1033A0003A00000014C400082446002060460020B3
:1033B000E84C002010B582B000240020DFF8681926
:1033C0000870DFF86409007800900723DFF8802A8E
:1033D0007821DFF8A40802F0E1FCDFF84C0900785E
:1033E000C01DDFF84419087000200400E4B2052C69
:1033F00045DADFF8600AE4B2112101FB04F1084468
:10340000C07B002839D0DFF8200900780090DFF871
:10341000440AE4B2112101FB04F10844C37BDFF844
:10342000340AE4B2112101FB04F100EB010278211E
:10343000DFF8440802F0B2FCDFF8EC080078DFF8AF
:10344000141AE4B2112202FB04F21144C97B0818D9
:10345000DFF8D4180870DFF8D00800780090022355
:103460009BA27821DFF8100802F098FCDFF8B8087A
:103470000078801CDFF8B0180870641CB6E713BD34
:10348000E04C0020A44D0020384D002080B50020E5
:10349000DFF894180870DFF85C0B0078002813D16F
:1034A000DFF88408007800900823DFF84C2B78219F
:1034B000DFF8C40702F072FCDFF86C08007808300F
:1034C000DFF8641808702BE0DFF8280B007801287B
:1034D00013D1DFF85408007800900B23DFF81C2B81
:1034E0007821DFF8940702F059FCDFF83C080078F7
:1034F0000B30DFF83418087012E0DFF82C08007881
:1035000000900A23DFF8F82A7821DFF86C0702F030
:1035100045FCDFF8140800780A30DFF80C18087052
:1035200001BD0000614D0020C8C60008844C002089
:1035300080B50020DFF8F0170870DFF8EC0700789E
:1035400000900B23DFF8BC2A7821DFF82C0702F06B
:1035500025FCDFF8D40700780B30DFF8CC170870B3
:103560000522DFF81817DFF8A00A006802F0FCFA5D
:10357000DFF8B407007800900523DFF800277821F2
:10358000DFF8F40602F00AFCDFF89C070078401D23
:10359000DFF89417087001BD944A0020E043002032
:1035A00068C6000880B50020DFF87C170870DFF8D7
:1035B0005C0A0078002813D1DFF86C0700780090CF
:1035C0000A23DFF84C2A7821DFF8AC0602F0E6FB8C
:1035D000DFF8540700780A30DFF84C1708702BE04A
:1035E000DFF8280A0078012813D1DFF83C070078BB
:1035F00000900D23DFF81C2A7821DFF87C0602F00A
:10360000CDFBDFF8240700780D30DFF81C170870B9
:1036100012E0DFF81407007800900C23DFF8F82997
:103620007821DFF8540602F0B9FBDFF8FC060078D9
:103630000C30DFF8F416087001BD80B50020DFF80B
:10364000E8160870DFF8D4090078002813D1DFF8F5
:10365000D806007800900A23DFF8C4297821DFF823
:10366000180602F09BFBDFF8C00600780A30DFF88E
:10367000B81608702BE0DFF8A4090078012813D1F0
:10368000DFF8A406007800900D23DFF89829782150
:10369000DFF8E40502F082FBDFF88C0600780D30DD
:1036A000DFF88416087012E0DFF87C0600780090DE
:1036B0000C23DFF874297821DFF8BC0502F06EFBDB
:1036C000DFF8640600780C30DFF85C16087001BD86
:1036D000200A00007D4D0020B4C70008184D0020CE
:1036E000D4C6000880B50020DFF83C160870DFF86B
:1036F0003C09007800283FD1DFF82C0600780090C4
:103700001923DFF82C297821DFF86C0502F046FB3D
:10371000DFF8140600781930DFF80C160870DFF8AF
:10372000140990F82000002813D1DFF8FC05007878
:1037300000900423DFF800297821DFF83C0502F02F
:103740002DFBDFF8E4050078001DDFF8DC150870BC
:1037500025E0DFF8D405007800900323D6A2782175
:10376000DFF8140502F01AFBDFF8BC050078C01C76
:10377000DFF8B415087012E0DFF8AC0500780090AF
:103780001B23DFF8B8287821DFF8EC0402F006FBF1
:10379000DFF8940500781B30DFF88C15087001BD48
:1037A0007E4D002080B50020DFF87C150870DFF822
:1037B0009008007800283FD1DFF86C050078009071
:1037C0001923DFF880287821DFF8AC0402F0E6FA4C
:1037D000DFF8540500781930DFF84C150870DFF871
:1037E000D80B90F82000002813D1DFF83C050078B2
:1037F00000900423DFF840287821DFF87C0402F0F1
:10380000CDFADFF824050078001DDFF81C150870DC
:1038100025E0DFF81405007800900323A6A27821A4
:10382000DFF8540402F0BAFADFF8FC040078C01C98
:10383000DFF8F414087012E0DFF8EC040078009070
:103840001B23DFF8782B7821DFF82C0402F0A6FA8E
:10385000DFF8D40400781B30DFF8CC14087001BD09
:10386000884C00207F4D0020904C00201A4D0020F5
:10387000E0C60008804D0020ECC60008BC4A0020CD
:1038800080B50020DFF8A0140870DFF89C040078F1
:1038900000900423DFF8282B7821DFF8DC0302F006
:1038A0007DFADFF884040078001DDFF87C140870CE
:1038B000DFF87404007800900623DFF8082B7821E5
:1038C000DFF8B40302F06AFADFF85C040078801DC8
:1038D000DFF854140870DFF8500400780090DFF827
:1038E0005407037DDFF84C277821DFF88C0302F0C2
:1038F00055FADFF834040078DFF83817097D081826
:10390000DFF824140870DFF8200400780090012309
:10391000A5A27821DFF8600302F040FADFF808047E
:103920000078401CDFF800140870DFF8FC03007812
:103930000090DFF80007C37FDFF88C2A7821DFF8DA
:10394000380302F02BFADFF8E0030078DFF8E41622
:10395000C97F0818DFF8D0130870DFF8D80690F890
:103960002000002812D1DFF8C00300780090042363
:10397000DFF8C4267821C04802F010FADFF8A80367
:103980000078001DDFF8A013087010E0DFF898033E
:1039900000780090032348A27821B74802F0FEF98E
:1039A000DFF884030078C01CDFF87C130870DFF8B0
:1039B0007803007800900723DFF84C2B7821AE487D
:1039C00002F0ECF9DFF860030078801DDFF858138F
:1039D0000870DFF8540300780090DFF8DC09037DFD
:1039E000DFF8D4297821A44802F0D8F9DFF83803A9
:1039F0000078DFF8C419097D0818DFF82C13087067
:103A0000DFF8240300780090012367A278219A4808
:103A100002F0C4F9C4480078401CC3490870C24889
:103A200000780090DFF89009C37FDFF8E02A782162
:103A3000914802F0B3F9BC480078DFF87C19C97FDF
:103A40000818B9490870DFF8700990F820000028BC
:103A50000FD1B548007800900423DFF8DC257821E9
:103A6000854802F09BF9B0480078001DAE49087007
:103A70000DE0AD480078009003230FA278217E4826
:103A800002F08CF9A8480078C01CA749087001BD55
:103A900080B50020A4490870A34800780090262330
:103AA000DFF86C2A7821744802F078F99E48007893
:103AB00026309D49087001BD204F4E0080B5002082
:103AC000994908709848007800900F23DFF87C2B04
:103AD0007821694802F062F9934800780F309249E2
:103AE000087001BD80B500208F4908708E480078AD
:103AF00000901923DFF8582B78215F4802F04EF927
:103B00008948007819308849087001BD8C4C002024
:103B100080B5002084490870DFF8380B0078002851
:103B200032D18148007800901123DFF82C2B7821C6
:103B3000514802F033F97C48007811307A49087016
:103B4000DFF8180B007800280FD177480078009034
:103B50000423DFF8E4247821474802F01FF9724873
:103B60000078001D704908701DE06F4800780090D3
:103B700003236EA27821404802F010F96A480078C9
:103B8000C01C694908700EE0674800780090122355
:103B9000DFF8CC2A7821384802F000F96248007832
:103BA00012306149087001BD2C00000024C40008D7
:103BB000004C002080B500205B490870DFF8A40AA3
:103BC0000078002833D15848007800901623DFF899
:103BD000982A7821284802F0E1F8534800781630F6
:103BE000514908705048007800900E23DFF8AC2B44
:103BF0007821214802F0D2F84B4800780E304A492B
:103C0000087005221D49DFF8980B006801F0ACFF31
:103C10004548007800900523184A7821164802F09C
:103C2000BDF841480078401D3F49087023E0DFF8A7
:103C3000340A007801280FD13B48007800901823FF
:103C4000DFF8602B78210C4802F0A8F8364800789D
:103C50001830354908700EE033480078009017237B
:103C6000DFF8442B7821044802F098F82E480078B9
:103C700017302D49087001BDA0460020904B002050
:103C800080B5002028490870DFF8D809007800289E
:103C900038D12548007800900723DFF8E42B7821FD
:103CA000DFF8E00B02F07AF81F480078C01D1E49CB
:103CB00008701D48007800900723DFF8CC2B78218E
:103CC000DFF8C00B02F06AF817480078C01D1649EB
:103CD00008700522DFF8901CDFF8B00B006801F0D7
:103CE00043FF1148007800900523DFF87C2C7821F1
:103CF000DFF8900B02F052F80B480078401D0A499B
:103D000008700FE00848007800900923DFF8802B46
:103D10007821DFF8700B02F041F803480078093091
:103D20000149087001BD0000444D0020204F4E00A5
:103D3000484D002034C4000844C4000840C30008B3
:103D400080B50020DFF8341D0870DFF8200C007803
:103D5000002841D1DFF8240D007800901123DFF80E
:103D6000102C7821DFF81C0B02F018F8DFF80C0D8E
:103D700000781130DFF8041D0870DFF8000D0078BE
:103D800000900D23DFF8EC2B7821DFF8F80A02F021
:103D900005F8DFF8E80C00780D30DFF8E01C08705B
:103DA0000522DFF8C41BDFF8D00B006801F0DCFE51
:103DB000DFF8C80C007800900523DFF8AC2B7821E1
:103DC000DFF8C00A01F0EAFFDFF8B00C0078401D10
:103DD000DFF8A81C08702BE0DFF8900B00780128B2
:103DE00013D1DFF8980C007800901B23DFF88C2BA0
:103DF0007821DFF8900A01F0D1FFDFF8800C00781D
:103E00001B30DFF8781C087012E0DFF8700C0078C7
:103E100000901B23DFF8682C7821DFF8680A01F096
:103E2000BDFFDFF8580C00781B30DFF8501C08701D
:103E300001BD000054C4000864C400084A4D0020BD
:103E400074C4000884C40008E4C2000894C40008D4
:103E500004C800084448002080B50020DFF81C1C7E
:103E60000870DFF8180C007800900F23DFF8142C8E
:103E70007821DFF8100A01F091FFDFF8000C0078DC
:103E80000F30DFF8F81B0870DFF8D0070078002843
:103E900013D1DFF8E80B007800900523DFF8E82B5A
:103EA0007821DFF8E00901F079FFDFF8D00B007826
:103EB000401DDFF8C81B087012E0DFF8C00B007867
:103EC00000900423DFF8C42B7821DFF8B80901F053
:103ED00065FFDFF8A80B0078001DDFF8A01B087055
:103EE000DFF8980B007800900B23464A7821DFF822
:103EF000940901F053FFDFF8840B00780B30DFF8F2
:103F00007C1B08700522DFF8601A3F48006801F04A
:103F10002BFEDFF8680B007800900523DFF8482AB5
:103F20007821DFF8600901F039FFDFF8500B0078E5
:103F3000401DDFF8481B0870DFF8400B0078009048
:103F40000E23DFF858287821DFF8380901F026FF22
:103F5000DFF8280B00780E30DFF8201B08700522F0
:103F6000DFF8041ADFF83808006801F0FDFDDFF81B
:103F70000C0B007800900523DFF8EC297821DFF89E
:103F8000040901F00BFFDFF8F40A0078401DDFF8A8
:103F9000EC1A0870DFF8E40A007800900D23DFF8CF
:103FA000D4297821DFF8DC0801F0F8FEDFF8CC0A2C
:103FB00000780D30DFF8C41A08700522DFF8A81960
:103FC000DFF8B409006801F0CFFDDFF8B00A00782F
:103FD00000900523DFF890297821DFF8A80801F088
:103FE000DDFEDFF8980A0078401DDFF8901A0870AF
:103FF00001BD00004D4D0020F8C6000804C70008B0
:1040000010C700081CC7000800000020504D002009
:1040100028C70008A4C40008B4C40008524D0020FA
:1040200034C70008C4C40008D4C40008544D00209C
:10403000A8C10008E44A00200CC80008C4C1000858
:10404000564D0020E0C1000880B5DFF8F80D00787B
:10405000002824D001282BD0022848D0032865D07E
:10406000042800F08280052800F09E80062800F0D9
:10407000BA80072800F0D680082800F0F2800928CE
:1040800000F00E810A2800F02A810C2800F04581FA
:104090000D2800F05B810E2800F072818AE100207B
:1040A000DFF8C81B08700120DFF8981D087081E157
:1040B0000B23DFF8BC2B0C21DFF8B80BFCF7E3F97E
:1040C000DFF8B41B0870DFF8B00B0078002804D1CB
:1040D0000220DFF8701D087008E0DFF89C0B007804
:1040E000022803D10E20DFF85C1D087062E10D2369
:1040F000DFF8882B0B21DFF8880BFCF7C4F9DFF819
:10410000781B0870DFF8700B0078002804D10420B9
:10411000DFF8301D087008E0DFF85C0B007802283B
:1041200003D10320DFF81C1D087043E10D23DFF8E5
:104130004C2B0C21DFF84C0BFCF7A5F9DFF8381BF2
:104140000870DFF8340B0078002804D10220DFF873
:10415000F41C087008E0DFF8200B0078022803D177
:104160000E20DFF8E01C087024E10E23DFF8182B86
:104170000C21DFF8180BFCF786F9DFF8FC1A087041
:10418000DFF8F40A0078002804D10620DFF8B41C18
:10419000087008E0DFF8E00A0078022803D1052063
:1041A000DFF8A01C087005E10623DFF8E42A0D21E2
:1041B000DFF8E00AFCF767F9DFF8BC1A0870DFF8EF
:1041C000B80A0078002804D10420DFF8781C0870B1
:1041D00008E0DFF8A40A0078022803D10E20DFF8F7
:1041E000641C0870E6E00F23DFF85C2C0C21DFF87C
:1041F0005C0CFCF748F9DFF8801A0870DFF8780AE1
:104200000078002804D10820DFF8381C087008E086
:10421000DFF8640A0078022803D10720DFF8241CA5
:104220000870C7E00623DFF8682A0E21DFF8200CAB
:10423000FCF729F9DFF8401A0870DFF83C0A00782B
:10424000002804D10620DFF8FC1B087008E0DFF826
:10425000280A0078022803D10E20DFF8E81B087036
:10426000A8E00623DFF8282A1121DFF8E80BFCF785
:104270000AF9DFF8041A0870DFF8FC090078002852
:1042800004D10920DFF8BC1B087008E0DFF8E8095A
:104290000078022803D10E20DFF8A81B087089E0FF
:1042A0000623DFF8EC290A21DFF8AC0BFCF7EBF86A
:1042B000DFF8C4190870DFF8C0090078002804D1BD
:1042C0000A20DFF8801B087008E0DFF8AC090078EE
:1042D000022803D10E20DFF86C1B08706AE002236D
:1042E00088A20A21DFF8740BFCF7CDF8DFF88819F3
:1042F0000870DFF884090078002804D10C20DFF86A
:10430000441B087008E0DFF870090078022803D128
:104310000E20DFF8301B08704CE000F0FBF8DFF8EF
:1043200058190870DFF850090078002804D10D20D2
:10433000DFF8101B087008E0DFF83C09007802285D
:1043400003D10E20DFF8FC1A087033E000F03EF8CD
:10435000DFF824190870DFF820090078002805D15B
:104360000020DFF8E01A0870002024E0DFF80809D8
:104370000078022803D10E20DFF8C81A087019E06F
:10438000DFF8E8080078401CDFF8E0180870DFF874
:10439000DC080078022809DB0020DFF8D01808705C
:1043A0000020DFF8A01A0870022004E00120DFF8E6
:1043B000941A0870012002BD084B0020FCC10008BF
:1043C00014C800081CC80008F94A002080B5DFF8AE
:1043D000B40B90F82000012840F08E80DFF8E40C48
:1043E0000078002803D0022863D040D382E0DFF8B1
:1043F000940BC07F0090DFF8903BDFF8880B027DC4
:10440000DFF8801B312000F073FEDFF8801B08709E
:10441000DFF8780B007800281DD10120DFF8A41CFC
:1044200008700020DFF8681B087014200090DFF887
:10443000643BDFF85C0B027892B20421DFF8580B82
:10444000006801F028FDDFF8480B0078001DDFF858
:10445000401B08700AE0DFF8340B0078022805D111
:104460000020DFF8601C087002204AE042E0DFF81C
:10447000200B0278DFF81C1B312000F061FFDFF811
:104480000C1B0870DFF8040B0078002805D1002011
:10449000DFF8301C0870002033E0DFF8F00A007805
:1044A000022805D10020DFF81C1C0870022028E03B
:1044B00020E0DFF8DC0A0278DFF8D81A312000F0BB
:1044C0003FFFDFF8C81A0870DFF8C00A007800283C
:1044D00005D10020DFF8EC1B0870002011E0DFF8A8
:1044E000AC0A0078022805D10020DFF8D81B08703C
:1044F000022006E0012004E00020DFF8C81B08705D
:10450000002002BD0D0A000024C800081D4B002039
:1045100038C1000880B5DFF8B00B90F82000012802
:1045200040F08E80DFF8A40B0078002803D002282A
:1045300063D040D382E0DFF8900BC07F0090DFF8BB
:10454000903BDFF8840B027DDFF87C1B302000F00D
:10455000CFFDDFF8801B0870DFF8780B00780028AB
:104560001DD10120DFF8641B08700020DFF8201A3D
:10457000087014200090DFF81C3ADFF8140A027863
:1045800092B20421DFF8100A006801F084FCDFF821
:10459000000A0078001DDFF8F81908700AE0DFF85B
:1045A000340B0078022805D10020DFF8201B0870AA
:1045B00002204AE042E0DFF8D8090278DFF8D41997
:1045C000302000F0BDFEDFF80C1B0870DFF8040B94
:1045D0000078002805D10020DFF8F01A08700020CC
:1045E00033E0DFF8F00A0078022805D10020DFF878
:1045F000DC1A0870022028E020E0DFF89409027835
:10460000DFF89019302000F09BFEDFF8C81A087020
:10461000DFF8C00A0078002805D10020DFF8AC1AC6
:104620000870002011E0DFF8AC0A0078022805D1FC
:104630000020DFF8981A0870022006E0012004E04C
:104640000020DFF8881A0870002002BDE4C40008CA
:1046500018C200085B4D002054C300089C4D002088
:1046600068C300085D4D0020FCC2000810B500249E
:10467000DFF8640A0078012840F08B80DFF8A40C92
:104680000078002805D0022820D00CD303286CD055
:1046900083E0DFF8480A0078012803D10120DFF821
:1046A000841C087079E0DFF8380A007801280CD102
:1046B000DFF8300A0078002807D10120DFF8241A3B
:1046C00008700220DFF85C1C087066E0FFF7BCFC95
:1046D000DFF8141A0870DFF8100A0078002810D1EB
:1046E0000120DFF8081A08700020DFF8F0190870C0
:1046F0000020DFF8F01908700020DFF8281C08708F
:1047000032E0DFF8E409007802282DD10020DFF83C
:10471000DC1908700020DFF8C81908700120DFF8E4
:10472000081C08700020DFF8BC190870DFF8FC0BCB
:104730000078401CDFF8F41B0870DFF8F00B0078FD
:1047400005280DDB0020DFF8E41B08700320DFF8EC
:10475000D41B087001F0CAFBDFF8D41B086003E02B
:104760000120DFF8C01B087017E001F0BFFB040058
:10477000DFF8BC0B0068201ADFF8BC1B884207D3A7
:104780000120DFF8581908700020DFF8981B087026
:1047900003E00020DFF88C1B087010BDF4C4000893
:1047A000A44C002034C2000814C3000880B50020C7
:1047B000DFF8DC17087014200090DFF8D837DFF836
:1047C000D007027892B20121FE2001F064FBDFF8ED
:1047D000C0070078401CDFF8B8170870142000905C
:1047E000DFF8B037DFF8A807027892B20221DFF8CD
:1047F000A807006801F04FFBDFF894070078801CE1
:10480000DFF88C17087014200090DFF88837DFF885
:104810008007027892B20121022001F03CFBDFF810
:1048200070070078401CDFF86817087014200090AB
:10483000DFF86037DFF85807027892B201210020D4
:1048400001F029FBDFF848070078401CDFF840172B
:1048500008700122DFF838070178DFF8380701F027
:104860002CFBDFF83017DFF8282712788854DFF8A0
:1048700020070078401CDFF81817087001BD000001
:104880002CC80008A046002034C80008AC4C00200A
:1048900040C7000880B50020DFF8F4160870142027
:1048A0000090DFF8F036DFF8E806027892B20121D6
:1048B000FE2001F0F0FADFF8D8060078401CDFF89F
:1048C000D016087014200090DFF8C836DFF8C00654
:1048D000027892B20221DFF8C006006801F0DBFA2C
:1048E000DFF8AC060078801CDFF8A41608701420EE
:1048F0000090DFF8A036DFF89806027892B2012126
:10490000102001F0C8FADFF888060078401CDFF8B4
:104910008016087014200090DFF87836DFF87006F3
:10492000027892B20121002001F0B5FADFF86006AA
:104930000078401CDFF8581608700122DFF8500696
:104940000178DFF8500601F0B8FADFF84816DFF812
:10495000402612788854DFF838060078401CDFF8CB
:104960003016087001BD0000904B00205F4D002004
:104970007CC3000804C50008A84C002050C20008F1
:1049800080B50020DFF80816087014200090DFF8CA
:104990000436DFF8FC05027892B20121FE2001F016
:1049A0007AFADFF8EC050078401CDFF8E4150870AF
:1049B00014200090DFF8DC35DFF8D405027892B2DD
:1049C0000221DFF8D405006801F065FADFF8C005C0
:1049D0000078801CDFF8B815087014200090DFF80C
:1049E000B435DFF8AC05027892B20121052001F060
:1049F00052FADFF89C050078401CDFF89415087027
:104A000014200090DFF88C35DFF88405027892B22C
:104A10000121002001F03FFADFF874050078401C06
:104A2000DFF86C15087014200090DFF86835DFF8A7
:104A30006005027892B20221DFF8B00B008801F025
:104A40002AFADFF84C050078801CDFF8441508705E
:104A50000122DFF83C050178DFF8380501F02DFA76
:104A6000DFF83015DFF8282512788854DFF82005A4
:104A70000078401CDFF81815087001BD444D002077
:104A80006CC2000814C500083CC8000844C80008EF
:104A900010B582B000240020DFF8F414087028203C
:104AA0000090DFF8F034DFF8E804027892B20121D8
:104AB000FE2001F0F0F9DFF8D8040078401CDFF8A0
:104AC000D014087028200090DFF8C834DFF8C00444
:104AD000027892B20221DFF8C004006801F0DBF92D
:104AE000DFF8AC040078801CDFF8A41408702820DC
:104AF0000090DFF8A034DFF89804027892B2012128
:104B0000032001F0C8F9DFF888040078401CDFF8C2
:104B100080140870DFF8D80A0088B0F5FA7F04DC4A
:104B2000DFF8CC0A0088002813D128200090DFF895
:104B30006434DFF85C04027892B20121032001F0B2
:104B4000AAF9DFF84C040078401CDFF84414087020
:104B500033E0DFF8A00A0088012807D0DFF88C0ACC
:104B60000088DFF88C1A0988884213D32820009027
:104B7000DFF82034DFF81804027892B20121002017
:104B800001F089F9DFF808040078401CDFF8001410
:104B9000087012E028200090DFF8F833DFF8F00307
:104BA000027892B20121032001F075F9DFF8E003E9
:104BB0000078401CDFF8D8130870DFF8340A00884A
:104BC00002F035FA040028200090DFF8C833DFF83F
:104BD000C003027892B20421200001F05CF9DFF8F2
:104BE000B0030078001DDFF8A8130870DFF8000A92
:104BF000008802F047FA040028200090DFF8943380
:104C0000DFF88C03027892B20421200001F043F90E
:104C1000DFF87C030078001DDFF874130870DFF8FC
:104C2000D009008802F0D9F9040028200090DFF8AC
:104C30006433DFF85C03027892B20421200001F0B3
:104C40002AF9D3480078001DD14908700122D048C4
:104C50000178D04801F031F9CE49CD4A1278885414
:104C6000CB480078401CCA49087013BD834D002012
:104C70004CC7000824C50008824D002034C5000838
:104C800058C7000844C5000864C5000854C500089A
:104C9000B4C7000874C5000880B5BA4890F8200071
:104CA000012840F0CA80DFF830040078012840F085
:104CB000C480DFF844090078002806D0012850D0CD
:104CC000032861D0042876D0BBE0DFF830090078F3
:104CD000002845D0DFF82809007801280AD10020F3
:104CE000DFF81C190870FFF761FD0120DFF80819D3
:104CF00008702EE0DFF80C09007801280AD10020A6
:104D0000DFF800190870FFF73BFE0120DFF8E81814
:104D100008701EE0DFF8F008007801280AD10020B2
:104D2000DFF8E4180870FFF7B3FE0120DFF8C818B9
:104D300008700EE0DFF8D4080078012809D10020BF
:104D4000DFF8C8180870FFF7A5FD0120DFF8A818E4
:104D50000870DFF8A8080078401EDFF8A018087077
:104D60006FE0DFF888030078002808D1DFF86C03D3
:104D70000078002803D10120DFF8601308700320B9
:104D8000DFF8741808705CE0DFF85403007801283D
:104D900010D1DFF85003007800280BD1DFF84C0366
:104DA0000078012806D10120CE4908700420DFF8E0
:104DB0004818087045E0764802787649312000F0BE
:104DC000BFFADFF84C180870DFF8440800780028B4
:104DD00007D10020C34908700020DFF81C180870B4
:104DE0002AE0DFF82C080078022825D10020BC49F1
:104DF00008700120DFF8301508700020B9490870EC
:104E0000DFF810080078401CDFF808180870DFF899
:104E10000408007803280BDB0020DFF8F81708707F
:104E20000120DFF8D41708700020B049087003E0B3
:104E30000320DFF8C417087003E00020DFF8B8177C
:104E4000087001BD814D002094C5000884C500088C
:104E5000A4C5000890C3000864C7000870C7000814
:104E600080B5484890F82000012840F085809A4895
:104E70000078012840F08080DFF80C0B00780028D3
:104E800006D0012812D0032820D0042832D077E0A1
:104E9000DFF884070078012807D10020DFF87817B1
:104EA00008700120DFF8E01A087069E08F48007888
:104EB000002806D189480078002802D101208749BE
:104EC00008700320DFF8C01A087059E084480078A1
:104ED00001280ED18348007800280AD18348007841
:104EE000012806D101207F4908700420DFF8981AB4
:104EF000087045E01122DFF8941A312000F020FA02
:104F0000DFF88C1A0870DFF8880A0078002807D1CB
:104F10000020744908700020DFF86C1A08702AE03D
:104F2000DFF86C0A0078022825D100206C4908704F
:104F30000120DFF8F413087000206A490870DFF8D8
:104F4000540A0078401CDFF84C1A0870DFF8440A55
:104F5000007803280BDB0020DFF8381A08700120E6
:104F6000DFF8241A087000206049087003E003206D
:104F7000DFF8141A087003E00020DFF80C1A08703C
:104F800001BD0000E44A0020F94A0020854D0020C0
:104F9000394D00201C4A00200000002080B54A48FE
:104FA00090F82000012840F088804B4800780128C4
:104FB00040F08380DFF8E0090078002806D001285F
:104FC00012D0032820D0042832D07AE0DFF8CC09B0
:104FD0000078012807D10020DFF8C01908700120EF
:104FE000DFF8B41908706CE040480078002806D15A
:104FF0003A480078002802D101203849087003207F
:10500000DFF8941908705CE03548007801280ED16B
:105010003448007800280AD134480078012806D1A5
:105020000120304908700420DFF86C19087048E04E
:105030001522DFF86C19302000F082F9DFF86419CE
:105040000870DFF86009007800280BD1002025499E
:1050500008700120DFF8501908700020DFF83819B7
:10506000087029E0DFF83C090078022824D10020EC
:105070001B4908700120AC490870002019490870CC
:10508000DFF828090078401CDFF820190870DFF8E5
:105090001C09007805280BDB0020DFF810190870C8
:1050A0000120DFF8F418087000201049087003E0B0
:1050B0000320DFF8E418087003E00020DFF8D818B8
:1050C000087001BD844D0020084B0020864D002053
:1050D0001D4B0020874D00209C4D0020BE0000206D
:1050E000404D0020424D0020894D00206A4D002097
:1050F0002DE9F84305000E0017009846089C5FF064
:105100000009DFF8AC080078002809D0022821D077
:1051100010D3042860D03ED3052800F08B80FDE03A
:105120000120DFF88C18087000F0E0FEDFF884182A
:105130000860F3E000F0DAFE8146DFF878080068E6
:10514000B9EB0000B0F5FA6F03D90220DFF8601860
:105150000870E3E00623DFF86028FA21DFF85C0836
:1051600000F023FDDFF858180880DFF854080088A5
:1051700000280BD00623DFF848080088421E92B2B0
:10518000FA21DFF8380800F048FE03E00320DFF8DA
:1051900020180870C2E00C23DFF82828FA21DFF875
:1051A0001C0800F002FDDFF818180880DFF810086E
:1051B000008800280BD00C23DFF804080088421E6A
:1051C00092B2FA21DFF8F40700F027FE03E0042092
:1051D000DFF8DC170870A1E00C21DFF8EC07FBF723
:1051E0000BF82800C0B2FAF7F0FF0821DFF8DC075F
:1051F000FBF702F83900C9B23000FAF7FDFF0321CE
:105200004CA0FAF7F9FF2100C9B24046FAF7F4FFC3
:1052100003214AA0FAF7F0FF0020DFF8B417087066
:105220000520DFF88C17087000F060FEDFF88417A7
:10523000086073E000F05AFE8146DFF878070068E6
:10524000B9EB0000B0F57A7F68D90C23DFF874273A
:10525000FA21DFF8680700F0A8FCDFF8641708807F
:10526000DFF85C070088002839D00C23DFF85007EE
:105270000088421E92B2FA21DFF8400700F0CDFD0F
:105280000623DFF83427FA21DFF8300700F08DFC21
:10529000DFF82C170880DFF828070088002814D0D2
:1052A0000623DFF81C070088421E92B2FA21DFF8BD
:1052B0000C0700F0B2FD0020DFF814170870002082
:1052C000DFF8EC160870002029E00020DFF8001756
:1052D00008700020DFF8D816087002201FE0DFF801
:1052E000F0060078401CDFF8E8160870DFF8E006EA
:1052F0000078142809DB0020DFF8D416087000209D
:10530000DFF8AC160870022009E00520DFF8A016CF
:10531000087000F0EBFDDFF89C1608600120BDE886
:10532000F2830000884D0020414D00208A4D00206E
:10533000944C0020222C2200C1270900220D0A00D3
:10534000F8B504000D0016000027DFF88806007885
:10535000002810D0022827D017D304286ED043D3BA
:10536000062800F0BC80C0F0B580082800F0EB8073
:10537000C0F0D68034E10120DFF85816087000F044
:10538000B5FDDFF8541608602AE100F0AFFD070014
:10539000DFF844060068381AB0F5FA6F03D9022026
:1053A000DFF8301608701BE103238EA2FA21DFF824
:1053B0000C0600F0FAFBDFF824160880DFF81C0664
:1053C000008800280BD00323DFF810060088421E57
:1053D00092B2FA21DFF8E40500F01FFD03E003209C
:1053E000DFF8F0150870FBE00B21DFF8F405FAF7A1
:1053F00003FF2000C0B2FAF7E8FE2C20FAF7E5FE22
:105400000222DFF8E015F6B2300000F0ADFB022119
:10541000DFF8D005FAF7F0FE012173A0FAF7ECFEF1
:105420000020DFF8C41508700420DFF8A815087004
:1054300000F05CFDDFF8A0150860D1E000F056FD3B
:105440000700DFF894050068381AB0F57A7F40D974
:10545000032364A2FA21DFF8640500F0A6FBDFF85D
:105460007C150880DFF87405008800280FD003231E
:10547000DFF868050088421E92B2FA21DFF83C0589
:1054800000F0CBFC0520DFF84C15087021E0DFF8B8
:1054900058050078401CDFF850150870DFF8480503
:1054A00000780A280CDB0020DFF83C15087000208B
:1054B000DFF8201508701B20FAF787FE022090E025
:1054C0000420DFF81015087000F010FDDFF8081553
:1054D000086085E00620DFF8FC14087080E00923EE
:1054E000DFF80825FA21DFF8D40400F05EFBDFF8CE
:1054F000EC140880DFF8E404008800280BD00723B0
:10550000DFF8D8040088421E92B2FA21DFF8AC041A
:1055100000F083FC03E00720DFF8B81408705FE0B8
:105520003100C9B22800FAF767FE0020DFF8B8148E
:1055300008700820DFF89C14087000F0D7FCDFF832
:10554000981408604CE000F0D1FC0700DFF88804F4
:105550000068381AB0F57A7F42D90923DFF88C2425
:10556000FA21DFF8580400F020FBDFF870140880FF
:10557000DFF868040088002810D00723DFF85C04F7
:105580000088421E92B2FA21DFF8300400F045FC98
:105590000020DFF840140870002022E0DFF8480403
:1055A0000078401CDFF840140870DFF83C040078F5
:1055B0001E280CDB0020DFF8301408700020DFF814
:1055C000141408701B20FAF700FE022009E00820DE
:1055D000DFF80014087000F089FCDFF8FC130860A5
:1055E0000120F2BD0D0A3E000D000000204D0020FC
:1055F0000C4D0020224D00208B4D0020BD000020CE
:10560000664D0020674D0020684D0020694D002048
:105610008C4D00208D4D00209E4D002080B5DFF880
:10562000D003007800280AD0022800F03881C0F0AA
:105630002781042800F07881C0F06781A3E1DFF8BA
:10564000B4030078002800F01A81DFF8AC0300787A
:1056500001280AD10020DFF8A0130870FDF7ACFD87
:105660000120DFF88C13087004E1DFF89003007864
:1056700001280AD10020DFF884130870FDF728FE06
:105680000120DFF86C130870F4E0DFF87403007891
:1056900001280AD10020DFF868130870FDF78AFEA0
:1056A0000120DFF84C130870E4E0DFF858030078BD
:1056B00001280AD10020DFF84C130870FDF7E6FE40
:1056C0000120DFF82C130870D4E0DFF83C030078E9
:1056D00001280AD10020DFF830130870FDF728FFF9
:1056E0000120DFF80C130870C4E0DFF82003007815
:1056F00001280AD10020DFF814130870FDF752FFCB
:105700000120DFF8EC120870B4E0DFF80403007841
:10571000012809D10020DFF8F8120870FDF78DFF8D
:105720000120B3490870A5E0BA480078012808D1E3
:105730000020B8490870FDF7D5FF0120AC4908707A
:1057400098E0B5480078012808D10020B2490870D7
:10575000FEF728F80120A64908708BE0AF480078D2
:10576000012808D10020AD490870FEF789F8012012
:105770009F4908707EE0AA480078012808D10020DF
:10578000A7490870FEF784F901209949087071E073
:10579000A4480078012808D10020A2490870FEF72B
:1057A000A1F901209249087064E09F48007801281F
:1057B00008D100209C490870FEF7AAF901208C4905
:1057C000087057E099480078012808D100209749CF
:1057D0000870FEF773F90120854908704AE0944883
:1057E0000078012808D1002091490870FEF7E2F9FD
:1057F00001207F4908703DE08E480078012808D1DB
:1058000000208C490870FEF79BFA01207849087047
:1058100030E089480078012808D1002086490870C6
:10582000FEF71AFB01207249087023E083480078D4
:10583000012808D1002081490870FDF79FFB012055
:105840006B49087016E07E480078012808D10020D6
:105850007B490870FEF714FA01206549087009E0D9
:1058600078480078012805D1002076490870032087
:105870005F4908705F480078401E5E49087082E00A
:1058800071480078012809D170480078002805D1B6
:1058900001206E49087002205549087073E06C4879
:1058A00003786C4A6C48C17B6B48FAF73CFF6B4944
:1058B00008706A480078002806D100206349087003
:1058C00000204B4908701FE06448007802281BD173
:1058D00000205D49087001206149087000205B4983
:1058E000087060480078401C5E4908705D48007888
:1058F000052806DB00205B49087000203C49087041
:1059000002E001203A4908703DE04F480078012844
:1059100009D14E480078002805D101204B49087074
:105920000420334908702EE0FDF75CF84B490870FD
:105930004A480078002806D1002044490870002019
:105940002B4908701FE04548007802281BD1002031
:105950003D49087001204249087000203B49087009
:1059600040480078401C3F4908703E4800780528B0
:1059700006DB00203B49087000201D49087002E04A
:1059800003201B49087001BD8E4D0020CC4B002028
:105990008F4D0020904D0020914D00202D4D002076
:1059A000784B0020924D00202E4D0020934D00207A
:1059B000944D0020984C0020B4C70008E04300201C
:1059C0001C4D0020B4C50008C4C500087CC70008F1
:1059D000954D0020964D00209C4C00201E4D00202F
:1059E00088C70008904B0020974D002094C70008FE
:1059F000984D0020BC000020474D0020494D00205C
:105A00004B4D00204C4D00204E4D00204F4D0020AE
:105A1000514D0020534D0020554D0020574D002082
:105A2000584D0020594D00205A4D0020634D002054
:105A30005C4D00205E4D0020604D0020614D002037
:105A4000644D0020384D0020404D0020424D002084
:105A5000444D0020A046002024460020994D0020FF
:105A6000414D00209A4D002010B402000023012473
:105A7000002901D1012008E001200300DBB2994296
:105A800002D354435B1CF9E7200010BC70472DE99A
:105A9000F84304000D00002600275FF000085FF0C7
:105AA0000009EDB204EB050010F8010C302806DB0C
:105AB000EDB204EB050010F8010C3A2802DB5FF0B0
:105AC000FF304FE00020804600200700380029000A
:105AD000C0B2C9B2884207D2FFB2E05D202803D12C
